:040000004AEF00F0D3
:100008005382FACF45F0FBCF46F0E9CF47F0EACF6D
:1000180048F0E1CF49F0E2CF4AF0D9CF4BF0DACF40
:100028004CF0F3CF4DF0F4CF4EF0F6CF4FF0F7CFC2
:1000380050F0F8CF51F0F5CF52F06BEC02F0F2A48B
:1000480007D011501210D8A402D0294A2A2AF294B3
:1000580052C0F5FF51C0F8FF50C0F7FF4FC0F6FF80
:100068004EC0F4FF4DC0F3FF4CC0DAFF4BC0D9FFC0
:100078004AC0E2FF49C0E1FF48C0EAFF47C0E9FFC4
:1000880046C0FBFF45C0FAFF5392110028EF03F06A
:100098000904D8A40BD0000E0001616F000E606F38
:1000A80009C062F00001636B71EC03F00A500001B3
:1000B800666F676B19500001661905E11A50000157
:1000C8006719D8B40ED0000E0001616F010E606F81
:1000D8000AC062F00001636B71EC03F00AC019F00A
:1000E8001A6A0B500001666F676B1750000166199A
:1000F80005E1185000016719D8B40ED0000E0001B0
:10010800616F020E606F0BC062F00001636B71ECEF
:1001180003F00BC017F0186A0C500001666F676B8C
:1001280023500001661905E1245000016719D8B46D
:100138000ED0000E0001616F030E606F0CC062F0FC
:100148000001636B71EC03F00CC023F0246A0D50BE
:100158000001666F676B1F500001661905E12050AA
:1001680000016719D8B40ED0000E0001616F040EAB
:10017800606F0DC062F00001636B71EC03F00DC09D
:100188001FF0206A0E500001666F676B1B5000015C
:10019800661905E11C5000016719D8B40ED0000E8D
:1001A8000001616F050E606F0EC062F00001636BA5
:1001B80071EC03F00EC01BF01C6A0F500001666F53
:1001C800676B21500001661905E12250000167198B
:1001D800D8B41200000E0001616F060E606F0FC0E8
:1001E80062F00001636B71EC03F00FC021F0226A2A
:1001F8001200800E6F6E6E38E832070B040AD8A41E
:10020800FAD7400E726E810E0E01436FB80E0E01C2
:10021800446F050E0E01456FF80E0E017D6F000E3E
:100228000E01FA6F000E0E01FB6F0E01F869E00E69
:100238000E01F96F000E0E01FE6F000E0E01FF6F2A
:100248000E01FC69E00E0E01FD6F070E0E01466FF0
:10025800000E0E01476FC00E0E01796F0E017A690C
:100268000E017B690E017C69100E0E01716FF20E92
:100278000E01726F0E0173690E0174690E017569C2
:100288000E0176690E0177690E017869000E0E017C
:10029800E26F000E0E01E36F320E0E01E06FC00E2A
:1002A8000E01E16F000E0E01E66F000E0E01E76F02
:1002B800330E0E01E46F400E0E01E56F000E0E01C5
:1002C800EA6F000E0E01EB6F330E0E01E86FC00EE1
:1002D8000E01E96F0ED06E38E832070B400AD8A439
:1002E80017D0F9D76E38E832070B600AD8A410D0B7
:1002F800F9D7000E6F6E6E38E832070B0009D8A4E4
:1003080007D0F9D76E38E832070B400AD8B4FAD7C5
:10031800000E606E000E0F01306F1200000E00011B
:10032800606F60AE1CD063CF40F064CF41F061CF06
:1003380042F062CF43F065CF3FF066CF33F067CF2E
:1003480034F068CF39F069CF3AF06ACF3BF06BCF21
:100358003CF06CCF3DF06DCF3EF0609E3FD00F017A
:1003680030AF1DD033CF40F034CF41F031CF42F021
:1003780032CF43F035CF3FF036CF33F037CF34F0BC
:1003880038CF39F039CF3AF03ACF3BF03BCF3CF099
:100398003CCF3DF03DCF3EF00F01309F1FD00E0106
:1003A80080AF1FD083CE40F084CE41F081CE42F0A2
:1003B80082CE43F085CE3FF086CE33F087CE34F040
:1003C80088CE39F089CE3AF08ACE3BF08BCE3CF01D
:1003D8008CCE3DF08DCE3EF00E01809F010E0001C7
:1003E800606F00016005D8A406D0000E0001606FA0
:1003F8007792010E1200000E1200B1EC02F090ECA0
:1004080003F0FDEC00F0F1EC02F0000E2A6E000E95
:10041800296E000E126E010E116E000E146E000E83
:10042800136E898E8B9C8B9E92EC01F00009D8B4D8
:1004380019D0000E126E000E116E8B8C33C001F0B5
:1004480034C002F039C003F03AC004F03BC005F0F4
:100458003CC006F03DC007F03EC008F0000E2A6E12
:10046800000E296E2ABE08D02A5004E11A0E295C13
:10047800D8A002D0000E036E13501410D8B41FD0A9
:10048800000E146E000E136E4CEC00F0C00E00014E
:10049800606F020E0001616F32C062F031C063F01C
:1004A8000BC064F00CC065F00DC066F00EC067F0BC
:1004B8000FC068F010C069F0320E50EC03F0190E4E
:1004C8000001616F000E606F84EC03F0ADD79EA64B
:1004D8001200C7BA14D0000E376EC7B0C9CF44F0A7
:1004E800C7A436D0C69E3850010D010EF324D96E2C
:1004F800000EF420DA6EDF50C96E382A29D0372A68
:10050800C7B0C9CF44F0C7A40ED0C69E3850010D5D
:10051800010EF324D96E000EF420DA6EDF50C96E96
:10052800382A898C15D03704D8A403D044C038F0B1
:100538000FD03850010D010EF324D96E000EF420AF
:10054800DA6E44C0DFFF382A000E146E010E136EF7
:100558000F0E38169E96C6881200000E166E000EF4
:10056800156E600ED36ED388D38AD38C9B8C000E05
:100578002C6E000E2B6E000E356E000E0F015C6F98
:100588005CCF5DFF93687F0E926E899E180E946E05
:100598008B9C8B9ED58ED59CD59AD596D550F80B2D
:1005A8000309D56E000E1A6E000E196E000E186E35
:1005B800000E176E000E246E000E236E000E206EC5
:1005C800000E1F6E000E1C6E000E1B6E000E226EBB
:1005D800000E216E000E316E1200550EC86E360EDA
:1005E800C66E000EC76E010EC56E9E969D86F28E73
:1005F800F28C000E0001616F000E606F000161BF98
:1006080008D00001615113E1100E0001605DD8B0FF
:100618000ED0010E00016025D96E000E0001612187
:10062800DA6E000EDF6E0001604B612BE7D7010E1A
:10063800096E3950010D010EF324D96E000EF42015
:10064800DA6E010EDF6E120000EE71F013EEE8F0C4
:10065800EE6AE550E150FCE1E250FAE10001706B0E
:100668006F6B00EE01F0430EEE6AE806FDE12A0E1C
:10067800F66E070EF76E000EF86E00EE6BF010EED9
:1006880004F00900F5CFEEFFE550E150FAE1539090
:100698005392000101EF02F000016A6F000E0F0192
:1006A800236F000E0F01246F6AC021FF60C022FF74
:1006B80061C025FF62C026FF63C027FF64C028FF12
:1006C80065C029FF66C02AFF67C02BFF68C02CFFE2
:1006D80069C02DFF0F012087120060C064F0010E71
:1006E8000001656F0001642B03D00001D8906537C5
:1006F8000001642FFAD7000165513218326E1200DA
:1007080000016007D8A0610700016029F9E1000134
:100718006129D8B41200F4D7D08EF28EF28CF28A06
:06072800120007000D00A5
:020000040020DA
:08000000FFFFFFFFFFFFFFFF00
:020000040030CA
:0E0000001D087F7FFF8991FF0FC00FE00F40AA
:00000001FF
