:040000004CEF00F0D1
:100008005082FACF42F0FBCF43F0E9CF44F0EACF79
:1000180045F0E1CF46F0E2CF47F0D9CF48F0DACF4C
:1000280049F0F3CF4AF0F4CF4BF0F6CF4CF0F7CFCE
:100038004DF0F8CF4EF0F5CF4FF0154A162A020EC4
:1000480015181610D8A406D068EC04F0000E166E29
:10005800000E156E4FC0F5FF4EC0F8FF4DC0F7FFFC
:100068004CC0F6FF4BC0F4FF4AC0F3FF49C0DAFFAB
:1000780048C0D9FF47C0E2FF46C0E1FF45C0EAFFDC
:1000880044C0E9FF43C0FBFF42C0FAFF5092110091
:10009800BCEF04F0000E0001696F000E686F0001EC
:1000A80069BF0AD00001695106E1C80E0001685D08
:1000B800D8B0120001D012000001660500016711D6
:1000C800D8A48BD000016051000168250001626F3F
:1000D80000016151000169210001636FD89000019E
:1000E80062376337F70E00016225D96E030E0001EF
:1000F8006321DA6EDE04DE10D8B4B4D0000160519A
:10010800000168250001626F000161510001692149
:100118000001636FD890000162376337F70E000162
:100128006225D96E030E00016321DA6E020EDE1815
:10013800DE10D8A422D0D89000016835D96E00010D
:100148006935DA6E650ED926020EDA22000EDE6EE9
:10015800000EDD6E0001684B692BD89000016835F0
:10016800D96E00016935DA6E650ED926020EDA22DB
:10017800000EDE6E000EDD6E53D0000160510001EE
:1001880068250001626F00016151000169210001C9
:10019800636FD890000162376337F70E000162255C
:1001A800D96E030E00016321DA6E030EDE18DE102D
:1001B800D8A48AD0D89000016835D96E0001693575
:1001C800DA6E650ED926020EDA22000EDE6E000EF9
:1001D800DD6E0001684B692B45D0000166510001B6
:1001E8006711D8A471D00001605100016825000191
:1001F800626F00016151000169210001636FD890AD
:10020800000162376337F70E00016225D96E030ECD
:1002180000016321DA6EDE04DE10D8A406D09DD773
:10022800000E0001676F000E30D000016051000120
:1002380068250001626F0001615100016921000118
:10024800636FD890000162376337F70E00016225AB
:10025800D96E030E00016321DA6E020EDE18DE107D
:10026800D8A415D0D89000016835D96E0001693539
:10027800DA6E650ED926020EDA22010EDE6E000E47
:10028800DD6E000E0001676F010E666F1DD0000164
:100298006051000168250001626F00016151000191
:1002A80069210001636FD890000162376337F70E48
:1002B80000016225D96E030E00016321DA6E030E78
:1002C800DE18DE10D8B4FFD70001684B692B000197
:1002D80069BFF2D60001695101E1E7D612000904AD
:1002E800D8A40BD0000E0001616F000E606F09C02A
:1002F80062F00001636BD4EC04F00A500001666FF1
:10030800676B19500001661905E11A500001671959
:10031800D8B40ED0000E0001616F010E606F0AC0E4
:1003280062F00001636BD4EC04F00AC019F01A6A99
:100338000B500001666F676B17500001661905E1E5
:10034800185000016719D8B40ED0000E0001616F73
:10035800020E606F0BC062F00001636BD4EC04F016
:100368000BC017F0186A0C500001666F676B2150BC
:100378000001661905E1225000016719D8B40ED0B2
:10038800000E0001616F030E606F0CC062F0000187
:10039800636BD4EC04F00CC021F0226A0D5000010C
:1003A800666F676B1D500001661905E11E5000015C
:1003B8006719D8B40ED0000E0001616F040E606F8B
:1003C8000DC062F00001636BD4EC04F00DC01DF0A9
:1003D8001E6A0E500001666F676B1B50000166199C
:1003E80005E11C5000016719D8B40ED0000E0001B9
:1003F800616F050E606F0EC062F00001636BD4EC94
:1004080004F00EC01BF01C6A0F500001666F676B8A
:100418001F500001661905E1205000016719D8B482
:100428001200000E0001616F060E606F0FC062F0CF
:100438000001636BD4EC04F00FC01FF0206A1200B7
:10044800800E6F6E6E38E832070B040AD8A4FAD70C
:10045800400E726E810E0E01436FB80E0E01446F8E
:10046800050E0E01456FF80E0E017D6F000E0E0190
:10047800FA6F000E0E01FB6F0E01F869E00E0E0117
:10048800F96F000E0E01FE6F000E0E01FF6F0E01D8
:10049800FC69E00E0E01FD6F070E0E01466F000E9F
:1004A8000E01476FC00E0E01796F0E017A690E01B9
:1004B8007B690E017C69100E0E01716FF20E0E0140
:1004C800726F0E0173690E0174690E0175690E0170
:1004D80076690E0177690E017869000E0E01E26FE8
:1004E800000E0E01E36F320E0E01E06FC00E0E011A
:1004F800E16F000E0E01E66F000E0E01E76F330E7E
:100508000E01E46F400E0E01E56F000E0E01EA6F5A
:10051800000E0E01EB6F330E0E01E86FC00E0E01D8
:10052800E96F0ED06E38E832070B400AD8A417D00E
:10053800F9D76E38E832070B600AD8A410D0F9D77B
:10054800000E6F6E6E38E832070B0009D8A407D08A
:10055800F9D76E38E832070B400AD8B4FAD7000E3C
:10056800606E000E0F01306F1200F4EC03F0F3EC34
:1005780004F024EC02F031EC04F0000E286E000EBA
:10058800276E000E126E010E116E000E146E000E14
:10059800136E898E8B9C8B9E000E00016C6F000E73
:1005A8006B6F00016B0500016C11D8A40CD0B1EC85
:1005B80003F060C06DF061C06EF06DC060F06EC099
:1005C80061F04EEC00F0000E0001616F0A0E606FE2
:1005D800E7EC04F0E1D742EC03F00009D8B419D0F5
:1005E800000E126E000E116E8B8C30C001F031C0FF
:1005F80002F036C003F037C004F038C005F039C047
:1006080006F03AC007F03BC008F0000E286E000E56
:10061800276E28BE08D0285004E11A0E275CD8A0FF
:1006280002D0000E036E13501410D8B41FD0000E61
:10063800146E000E136E73EC01F0C00E0001606FB3
:10064800020E0001616F2FC062F010C063F00BC092
:1006580064F00CC065F00DC066F00EC067F00FC006
:1006680068F010C069F0320E9BEC04F0190E00011E
:10067800616F000E606FE7EC04F0ADD7000E00016B
:10068800606F60AE1CD063CF3DF064CF3EF061CFA9
:100698003FF062CF40F065CF3CF066CF30F067CFD7
:1006A80031F068CF36F069CF37F06ACF38F06BCFCA
:1006B80039F06CCF3AF06DCF3BF0609E3FD00F0120
:1006C80030AF1DD033CF3DF034CF3EF031CF3FF0C7
:1006D80032CF40F035CF3CF036CF30F037CF31F065
:1006E80038CF36F039CF37F03ACF38F03BCF39F042
:1006F8003CCF3AF03DCF3BF00F01309F1FD00E01A9
:1007080080AF1FD083CE3DF084CE3EF081CE3FF047
:1007180082CE40F085CE3CF086CE30F087CE31F0E8
:1007280088CE36F089CE37F08ACE38F08BCE39F0C5
:100738008CCE3AF08DCE3BF00E01809F010E000169
:10074800606F00016005D8A406D0000E0001606F3C
:100758007792010E1200000E1200000E0001656F64
:10076800000E646F000E0001676F000E666F0001D7
:1007780067BF08D00001675132E1C80E0001665D0D
:10078800D8B01200D89000016635D96E00016735DF
:10079800DA6EF70ED926030EDA22DE04DE10D8A4AC
:1007A80015D00001644B652B090E00016419000186
:1007B8006511D8A410D0010E000166250001606FF4
:1007C800000E000167210001616F1200000E000198
:1007D800656F000E646F0001664B672BC8D7120067
:1007E800000E166E000E156E600ED36ED388D38A77
:1007F800D38C9B8C000E2A6E000E296E000E326E72
:10080800000E0F015C6F5CCF5DFF93687F0E926EE8
:10081800899E180E946E8B9C8B9ED58ED59CD59AEE
:10082800D596D580D582D584000E1A6E000E196E25
:10083800000E186E000E176E000E226E000E216E4E
:10084800000E1E6E000E1D6E000E1C6E000E1B6E3E
:10085800000E206E000E1F6E1200550EC86E360E6A
:10086800C66E000EC76E010EC56E9E969D86F28EF0
:10087800F28C000E0001616F000E606F000161BF15
:1008880008D00001615113E1100E0001605DD8B07D
:100898000ED0010E00016025D96E000E0001612105
:1008A800DA6E000EDF6E0001604B612BE7D7010E98
:1008B800096E3650010D010EF324D96E000EF42096
:1008C800DA6E010EDF6E120081A003D0416A412A60
:1008D80001D0416A41502D6E2E6A234A242A2550A0
:1008E8002D1804E126502E18D8B412002DC025F07A
:1008F8002EC026F02D042E10D8A412002CBE06D02F
:10090800F40E2B5C010E2C58D8B00BD0710E2B2492
:10091800D96E000E2C20DA6E23C0DFFF2B4A2C2A5A
:1009280001D0F29A000E246E010E236E120000010F
:100938006A6F000E0F01236F000E0F01246F6AC04B
:1009480021FF60C022FF61C025FF62C026FF63C08F
:1009580027FF64C028FF65C029FF66C02AFF67C05B
:100968002BFF68C02CFF69C02DFF0F0120871200E4
:1009780000EE71F015EE16F0EE6AE550E150FCE17C
:10098800E250FAE10001706B6F6B00EE01F0400E6F
:10099800EE6AE806FDE1509050920001B9EF02F0CE
:1009A80060C064F0010E0001656F0001642B03D084
:1009B8000001D89065370001642FFAD7000165510E
:1009C8002F182F6E120000016007D8A061070001E0
:1009D8006029F9E100016129D8B41200F4D7D08E5A
:0809E800F28EF28CF28A12007B
:020000040020DA
:08000000FFFFFFFFFFFFFFFF00
:020000040030CA
:0E0000001D087F7FFF8991FF0FC00FE00F40AA
:00000001FF
