:0400000050EF00F0CD
:100008005482FACF46F0FBCF47F0E9CF48F0EACF69
:1000180049F0E1CF4AF0E2CF4BF0D9CF4CF0DACF3C
:100028004DF0F3CF4EF0F4CF4FF0F6CF50F0F7CFBE
:1000380051F0F8CF52F0F5CF53F00001624B632B2B
:100048000A0E0001621900016311D8A407D042EC1E
:100058000BF0000E0001636F000E626F53C0F5FFD6
:1000680052C0F8FF51C0F7FF50C0F6FF4FC0F4FF71
:100078004EC0F3FF4DC0DAFF4CC0D9FF4BC0E2FFC2
:100088004AC0E1FF49C0EAFF48C0E9FF47C0FBFF9B
:0C00980046C0FAFF54921100BFEF0AF0BE
:100F00000001000A006400E80310272564000000C7
:100F10000904D8A40BD0000E00016F6F000E6E6F95
:100F200009C070F00001716BF5EC0BF00A50000184
:100F3000746F756B15500001741905E116500001AE
:100F40007519D8B40ED0000E00016F6F010E6E6FD0
:100F50000AC070F00001716BF5EC0BF00AC015F0DF
:100F6000166A0B500001746F756B135000017419F1
:100F700005E1145000017519D8B40ED0000E00011F
:100F80006F6F020E6E6F0BC070F00001716BF5ECAD
:100F90000BF00BC013F0146A0C500001746F756BEA
:100FA00019500001741905E11A5000017519D8B4DF
:100FB0000ED0000E00016F6F030E6E6F0CC070F04C
:100FC0000001716BF5EC0BF00CC019F01A6A0D50B2
:100FD0000001746F756B17500001741905E118500A
:100FE00000017519D8B40ED0000E00016F6F040E09
:100FF0006E6F0DC070F00001716BF5EC0BF00DC061
:1010000017F0186A0E500001746F756B000164517F
:101010000001741906E10001655100017519D8B489
:101020000FD0000E00016F6F050E6E6F0EC070F0D6
:101030000001716BF5EC0BF00EC064F00001656B04
:101040000F500001746F756B000168510001741935
:1010500006E10001695100017519D8B41200000EB3
:1010600000016F6F060E6E6F0FC070F00001716BA4
:10107000F5EC0BF00FC068F00001696B120037C08F
:101080003DF038C03EF0000E426E000E416E000E84
:10109000446E000E436E000E406E000E3F6E3EBE6C
:1010A00006D0F40E3D5C010E3E58D8B012003D5003
:1010B0003524D96E3E503620DA6EDF503B6E3C6AE6
:1010C00041503B1807E142503C18D8A403D0434A92
:1010D000442A72D044BE1ED0445004E1040E435C46
:1010E000D8A018D044BE06D0445014E1090E435C89
:1010F000D8B010D0D8903F34D96E4034DA6E395021
:10110000D9263A50DA2241C0DEFF42C0DDFF3F4A15
:10111000402A43D044BE35D0445004E1090E435C1C
:10112000D8A02FD044BE06D044502BE10F0E435C14
:10113000D8B027D0D8903F34D96E4034DA6E3950C9
:10114000D9263A50DA2241C0DEFF42C0DDFF3FC05F
:101150003BF040C03CF0D8903B363C36020E3B267C
:10116000000E3C223B503924D96E3C503A20DA6EB6
:1011700041C0DEFF42C0DDFF020E3F26000E4022CE
:101180000CD044BE0AD0445004E10F0E435CD8A0FA
:1011900004D041504210D8B41200000E446E010E2B
:1011A000436E3D503524D96E3E503620DA6EDF5006
:1011B0003B6E3B50416E426A3D4A3E2A70D7800EDC
:1011C0006F6E6E38E832070B040AD8A4FAD7400EC7
:1011D000726E810E0E01436FB80E0E01446F050E44
:1011E0000E01456FF80E0E017D6F000E0E01FA6FB5
:1011F000000E0E01FB6F0E01F869E00E0E01F96F93
:10120000000E0E01FE6F000E0E01FF6F0E01FC6955
:10121000E00E0E01FD6F070E0E01466F000E0E016F
:10122000476FC00E0E01796F0E017A690E017B695E
:101230000E017C69100E0E01716FF20E0E01726FBD
:101240000E0173690E0174690E0175690E017669EC
:101250000E0177690E017869000E0E01E26F000E33
:101260000E01E36F320E0E01E06FC00E0E01E16F52
:10127000000E0E01E66F000E0E01E76F330E0E0139
:10128000E46F400E0E01E56F000E0E01EA6F000ED6
:101290000E01EB6F330E0E01E86FC00E0E01E96F09
:1012A0000ED06E38E832070B400AD8A417D0F9D711
:1012B0006E38E832070B600AD8A410D0F9D7000EB8
:1012C0006F6E6E38E832070B0009D8A407D0F9D743
:1012D0006E38E832070B400AD8B4FAD7000E606EB9
:1012E000000E0F01306F1200000E3E6E000E3D6EBC
:1012F000000E406E000E3F6E40BE06D0405067E1CB
:10130000580E3F5CD8B063D0D8903F34D96E40348B
:10131000DA6E3750D9263850DA22DE04DE10D8A42F
:1013200020D03FC039F040C03AF0D89039363A3634
:10133000020E3926000E3A2239503724D96E3A501F
:101340003820DA6EDE50DE10D8A40BD0D8903D34B1
:10135000D96E3E34DA6E3550D9263650DA22010E77
:101360002CD0D8903F34D96E4034DA6E3750D9261D
:101370003850DA22DE50DE10D8A412003FC039F017
:1013800040C03AF0D89039363A36020E3926000E6F
:101390003A2239503724D96E3A503820DA6EDE04BA
:1013A000DE10D8A41200D8903D34D96E3E34DA6EE7
:1013B0003550D9263650DA22000EDE6E000EDD6E74
:1013C0003D4A3E2A020E3F26000E402295D7000ECF
:1013D0003E6E000E3D6E1200000E00016E6F60AE9C
:1013E0001CD063CF31F064CF32F061CF33F062CFE5
:1013F00034F065CF30F066CF24F067CF25F068CFAA
:101400002AF069CF2BF06ACF2CF06BCF2DF06CCF88
:101410002EF06DCF2FF0609E3FD00F0130AF1DD06A
:1014200033CF31F034CF32F031CF33F032CF34F02C
:1014300035CF30F036CF24F037CF25F038CF2AF033
:1014400039CF2BF03ACF2CF03BCF2DF03CCF2EF004
:101450003DCF2FF00F01309F1FD00E0180AF1FD066
:1014600083CE31F084CE32F081CE33F082CE34F0B0
:1014700085CE30F086CE24F087CE25F088CE2AF0B7
:1014800089CE2BF08ACE2CF08BCE2DF08CCE2EF088
:101490008DCE2FF00E01809F010E00016E6F0001B6
:1014A0006E05D8A406D0000E00016E6F7792010E73
:1014B0001200000E120000000000000001000100F8
:1014C0000000000001000000010001000100010017
:1014D0000000000001000000000001000100000009
:1014E00001000100010000000100010000000000F7
:1014F00000000000000000000000010000000100EA
:1015000001000000000000000000000000000000DA
:1015100001000100000000000000000000000000C9
:1015200001000100000000000100000001000100B6
:1015300001000100000000000100000000000100A7
:101540000100000001000100010000000100010095
:10155000000000000000000000000000000001008A
:101560000000010001000000000000000000000079
:10157000000000000100010000000000000001EE7A
:10158000CCF01AEEF0F0EE6AE550E150FCE1E250EA
:10159000FAE10101CB6BCA6BC96BC86B00EE60F05E
:1015A0000E0EEE6AE806FDE100EE01F0340EEE6A82
:1015B000E806FDE1B60EF66E140EF76E000EF86E3C
:1015C00001EE00F010EEC8F00900F5CFEEFFE55097
:1015D000E150FAE1320EF66E180EF76E000EF86E5C
:1015E00000EE79F010EE04F00900F5CFEEFFE550C3
:1015F000E150FAE154905492000EF86E0001B3EFFE
:101600000BF0000E0001636F000E626F600ED36E70
:10161000D388D38AD38C9B8C000E00016D6F000E93
:101620006C6F000E266E000E0F015C6F5CCF5DFFCD
:1016300093687F0E926E899E180E946E8B9C8B9E83
:10164000D58ED59CD59AD596D580D582D584000ED9
:10165000166E000E156E000E146E000E136E000E48
:101660001A6E000E196E000E186E000E176E000E28
:101670000001656F000E646F000E0001696F000EBF
:10168000686F120081A003D0456A452A01D0456ADF
:101690004550216E226AD8901F34D96E2034DA6EFC
:1016A000B40ED926050EDA2221C0DEFF22C0DDFFEE
:1016B0001F4A202A20BE1200F40E1F5C010E205883
:1016C000D8A01200F29AB40E356E050E366E000EDA
:1016D000386E000E376E2C0E396E0B0E3A6E3FECE4
:1016E00008F09C0E356E090E366E2C0E376E0B0E02
:1016F000386E74EC09F01200550EC86E360EC66EC8
:10170000000EC76E010EC56E9E969D86F28EF28CFF
:10171000000E00016F6F000E6E6F00016FBF08D0EA
:1017200000016F5113E1100E00016E5DD8B00ED0B4
:10173000010E00016E25D96E000E00016F21DA6ED8
:10174000000EDF6E00016E4B6F2BE7D7010E096EA6
:101750002A50010D010EF324D96E000EF420DA6E2A
:10176000010EDF6E120001EC0BF014EC0CF0DFEC5C
:1017700008F07CEC0BF0000E00016B6F000E6A6F3E
:10178000000E0001616F010E606F000E126E000E00
:10179000116E898E8B9C8B9E000E00016F6F010E67
:1017A0006E6F08EC0CF0F8D70001786F000E0F0197
:1017B000236F000E0F01246F78C021FF6EC022FF3F
:1017C0006FC025FF70C026FF71C027FF72C028FFC1
:1017D00073C029FF74C02AFF75C02BFF76C02CFF91
:1017E00077C02DFF0F01208712006EC072F0010E2E
:1017F0000001736F0001722B03D00001D890733782
:101800000001722FFAD7000173512318236E1200C2
:1018100000016E07D8A06F0700016E29F9E10001F1
:101820006F29D8B41200F4D7D08EF28EF28CF28ADF
:06183000120007000D008C
:020000040020DA
:08000000FFFFFFFFFFFFFFFF00
:020000040030CA
:0E0000001D087F7FFF8991FF0FC00FE00F40AA
:00000001FF
