:040000004CEF00F0D1
:100008004282FACF25F0FBCF26F0E9CF27F0EACFDE
:1000180028F0E1CF29F0E2CF2AF0D9CF2BF0DACFC0
:100028002CF0F3CF2DF0F4CF2EF0F6CF2FF0F7CF42
:1000380030F0F8CF31F0F5CF32F0034A042A020E3F
:1000480003180410D8A406D043EC04F0000E046E84
:10005800000E036E32C0F5FF31C0F8FF30C0F7FF65
:100068002FC0F6FF2EC0F4FF2DC0F3FF2CC0DAFF1F
:100078002BC0D9FF2AC0E2FF29C0E1FF28C0EAFF50
:1000880027C0E9FF26C0FBFF25C0FAFF42921100F6
:10009800BCEF03F0000E0001FB6F000EFA6F000EBC
:1000A8000001FD6F000EFC6F000E0001F96F000EDD
:1000B800F86F010E33240001F26F000E34200001A6
:1000C800F36F89D0260E0001F225D96E010E0001CA
:1000D800F321DA6EDF50356E366A0001FA513518B1
:1000E80009E10001FB513618D8A404D00001FC4BEB
:1000F800FD2B6ED00001FDBF18D00001FD5105E1B8
:10010800030E0001FC5DD8A010D00001FDBF30D067
:100118000001FD510AE1090E0001FC5DD8B005D0CF
:1001280027D00001F84BF92B40D00001FDBF2BD0A0
:100138000001FD5105E1090E0001FC5DD8A023D0A6
:100148000001FDBF08D00001FD511DE10F0E0001A7
:10015800FC5DD8B018D0600E0001F825D96E000EED
:100168000001F921DA6EFAC0DFFF0001F84BF92B24
:10017800600E0001F825D96E000E0001F921DA6E33
:10018800FAC0DFFFCED70001FDBF12000001FD510C
:1001980005E10F0E0001FC5DD8A012000001FA5124
:1001A8000001FB11D8A412002CD0000E0001FD6F35
:1001B800010EFC6F260E0001F225D96E010E00011A
:1001C800F321DA6EDF50356E35500001FA6FFB6BA4
:1001D8000001F24BF32B0001F3BF08D0E80E000139
:1001E800F25D030E0001F359D8B00BD00001F9BF3E
:1001F80069D70001F95105E15A0E0001F85DD8A050
:1002080061D7000E0001FF6F000EFE6F000E0001A7
:10021800F16F000EF06F0001FFBF08D00001FF5121
:100228005AE15A0E0001FE5DD8B055D0600E0001AB
:10023800FE25D96E000E0001FF21DA6EDE04D8A477
:100248001BD0010E0001FE25356E000E0001FF21B6
:10025800366E600E3524D96E000E3620DA6EDF5009
:10026800D8A40AD0BB0E0001F025D96E000E0001FB
:10027800F121DA6E010E25D0600E0001FE25D96E3F
:10028800000E0001FF21DA6EDF50D8A41200010E23
:100298000001FE25356E000E0001FF21366E600E4E
:1002A8003524D96E000E3620DA6EDE04D8A412008A
:1002B800BB0E0001F025D96E000E0001F121DA6EA7
:1002C800000EDF6E020E0001FE27000EFF23000164
:1002D800F04BF12BA0D7000E0001EB6F000EEA6F78
:1002E800000E0001ED6F000EEC6F000E0001F56FBF
:1002F8001C0EF46F000E0001EF6F0F0EEE6F000181
:10030800F5BF08D00001F5512DE12C0E0001F45D78
:10031800D8B028D0EEC035F0BB0E0001F425D96E58
:10032800000E0001F521DA6EDF50366E376A352A85
:1003380003D0D89036363736352EFBD736500001E5
:10034800EA1337500001EB130001F44BF52B0001C1
:10035800EE07D8A0EF070001F5BFDCD70001F55183
:1003680001E1D3D7E7C0E8F00001E96B000E000116
:10037800F76F000EF66F0001F7BF08D00001F751C4
:1003880016E12D0E0001F65DD8B01200BB0E00017B
:10039800F625D96E000E0001F721DA6EDF50356EB2
:1003A80035500001EC1B0001F64BF72BE4D7120087
:1003B80010BE42D1E80E0F5C030E1058D8B016D00C
:1003C8003BD101010BBF08D0E80E01010A5D030E05
:1003D80001010B59D8B004D001010A4B0B2BF1D7FE
:1003E800100E346E000E336E32EC04F0000E010174
:1003F800016F000E006F000E0101036F000E026F07
:10040800000E0101056F000E046F000E0101076F59
:10041800000E066F000EE8CF26F1000E0101156FE1
:10042800010E146F010115BF08D0E80E0101145D1B
:10043800030E01011559D8B077D0260E01011425F5
:10044800D96E010E01011521DA6EDF50386E385071
:100458000101106F116B040E010110190101111136
:10046800D8A40ED0260E01011425D96E010E010163
:100478001521DA6E000EDF6E0101024B032B50D0FE
:10048800050E0101101901011111D8A420D0FF0E89
:10049800386EFF0E396E14C13AF015C13BF0385072
:1004A8003A2639503B22260E3A24D96E010E3B20BB
:1004B800DA6E260E01011425E16E010E01011521E7
:1004C800E26EDFCFE7FF0101064B072B29D0060EAE
:1004D8000101101901011111D8B407D0070E01014B
:1004E800101901011111D8A40ED0260E01011425EE
:1004F800D96E010E01011521DA6E010EDF6E0101C0
:10050800004B012B0DD0260E01011425D96E010ECA
:1005180001011521DA6E650EDF6E0101044B052B12
:100528000101144B152B7ED7000E0101096F000E37
:10053800086F01010E690F69000E01010D6F000EB1
:100548000C6F000E0101136F000E126F010113BF33
:1005580008D0E80E0101125D030E01011359D8B04D
:1005680045D0260E01011225D96E010E0101132175
:10057800DA6EDF50386E396A01010C51381809E11A
:1005880001010D513918D8A404D00101084B092BD9
:1005980029D0010109BF13D00101095105E10F0E4E
:1005A8000101085DD8A00BD001010C0501010D1156
:1005B800D8A405D012C10EF113C10FF117D0000E47
:1005C8000101096F010E086F260E01011225D96E6F
:1005D800010E01011321DA6EDF50386E3850010127
:1005E8000C6F0D6B0101124B132BB0D701010FBF1C
:1005F80018D001010F5104E101010E05D8A011D056
:1006080001010FBF08D0260E01010E5D020E010187
:100618000F59D8B006D00EC133F00FC134F04EECEC
:1006280000F0094A0A2A000E0C6E000E0B6E000E2E
:10063800106E000E0F6E1200190E346E000E336E1F
:1006480032EC04F01200800E6F6E6E38E832070B41
:10065800040AD8A4FAD7400E726E810E0E01436FB9
:10066800B80E0E01446F050E0E01456FF80E0E010F
:100678007D6F000E0E01FA6F000E0E01FB6F0E016A
:10068800F869E00E0E01F96F000E0E01FE6F000E04
:100698000E01FF6F0E01FC69E00E0E01FD6F070EE3
:1006A8000E01466F000E0E01476FC00E0E01796FE6
:1006B8000E017A690E017B690E017C69100E0E012C
:1006C800716FF20E0E01726F0E0173690E0174697B
:1006D8000E0175690E0176690E0177690E01786958
:1006E800000E0E01E26F000E0E01E36F320E0E01D6
:1006F800E06FC00E0E01E16F000E0E01E66F000EF6
:100708000E01E76F330E0E01E46F400E0E01E56F28
:10071800000E0E01EA6F000E0E01EB6F330E0E0194
:10072800E86FC00E0E01E96F0ED06E38E832070B85
:10073800400AD8A417D0F9D76E38E832070B600AF8
:10074800D8A410D0F9D7000E6F6E6E38E832070BB8
:100758000009D8A407D0F9D76E38E832070B400A49
:10076800D8B4FAD7000E606E000E0F01306F120079
:1007780001EE26F013EEE8F0EE6AE550E150FCE1F8
:10078800E250FAE101EE16F0100EEE6AE806FDE11D
:1007980000EE01F0240EEE6AE806FDE1800EF66E2A
:1007A800080EF76E000EF86E00EE3CF010EE06F044
:1007B8000900F5CFEEFFE550E150FAE14290429290
:1007C800000111EF04F0000E046E000E036E600EBF
:1007D800D36ED388D38AD38C9B8C000E0E6E000EFA
:1007E8000D6E000E146E000E0F015C6F5CCF5DFF86
:1007F80093683F0E926E899E180E946E8B9A8B9C0E
:100808008B9E000E066E000E056ED58ED59CD59A71
:10081800D596D580D582D5841200E7EC03F03BEC61
:1008280004F027EC03F025EC04F0898E190E346EE1
:10083800000E336E32EC04F0DCEC01F08B9C8B9EE6
:10084800F5D7540EC86E360EC66E000EC76E010E72
:10085800C56E9E969D86F28EF28C12003306D8A045
:1008680034063328FBE13428D8B41200F7D7D08EE9
:10087800F28EF28CF28A120007000D0002018B7EC4
:0208880012005C
:020000040020DA
:08000000FFFFFFFFFFFFFFFF00
:020000040030CA
:0E0000001D087F7FFF8991FF0FC00FE00F40AA
:00000001FF
