:0400000041EF00F0DC
:100008002282FACF14F0FBCF15F0E9CF16F0EACF31
:1000180017F0E1CF18F0E2CF19F0D9CF1AF0DACF04
:100028001BF0F3CF1CF0F4CF1DF0F6CF1EF0F7CF86
:100038001FF0F8CF20F0F5CF21F043EC00F021C0FD
:10004800F5FF20C0F8FF1FC0F7FF1EC0F6FF1DC058
:10005800F4FF1CC0F3FF1BC0DAFF1AC0D9FF19C098
:10006800E2FF18C0E1FF17C0EAFF16C0E9FF15C09C
:10007800FBFF14C0FAFF2292110084EF00F09EA645
:100088001200C7BA13D0000E116EC7B0C9CF13F053
:10009800C7A431D0C69E1250010D010EF324D96EAB
:1000A800000EF420DA6EDF50C96E24D0112AC7B0D2
:1000B800C9CF13F0C7A40ED0C69E1250010D010E71
:1000C800F324D96E000EF420DA6EDF50C96E122ABE
:1000D800898C11D01104D8A403D013C012F00BD00E
:1000E8001250010D010EF324D96E000EF420DA6EC1
:1000F80013C0DFFF122A0F0E12169E96C688120032
:1001080000EE01F0120EEE6AE806FDE1229022925E
:0A01180000018FEF00F041EF00F04E
:020000040020DA
:08000000FFFFFFFFFFFFFFFF00
:020000040030CA
:0E0000001D087F7FFF8991FF0FC00FE00F40AA
:00000001FF
