:040000004AEF00F0D3
:100008005482FACF46F0FBCF47F0E9CF48F0EACF69
:1000180049F0E1CF4AF0E2CF4BF0D9CF4CF0DACF3C
:100028004DF0F3CF4EF0F4CF4FF0F6CF50F0F7CFBE
:1000380051F0F8CF52F0F5CF53F086EC02F0F2A46D
:1000480007D011501210D8A402D0294A2A2AF294B3
:1000580053C0F5FF52C0F8FF51C0F7FF50C0F6FF7C
:100068004FC0F4FF4EC0F3FF4DC0DAFF4CC0D9FFBC
:100078004BC0E2FF4AC0E1FF49C0EAFF48C0E9FFC0
:1000880047C0FBFF46C0FAFF5492110067EF03F028
:100098000904D8A40BD0000E0001616F000E606F38
:1000A80009C062F00001636B7FEC03F00A500001A5
:1000B800666F676B17500001661905E1185000015B
:1000C8006719D8B40ED0000E0001616F010E606F81
:1000D8000AC062F00001636B7FEC03F00AC017F0FE
:1000E800186A0B500001666F676B1550000166199E
:1000F80005E1165000016719D8B40ED0000E0001B2
:10010800616F020E606F0BC062F00001636B7FECE1
:1001180003F00BC015F0166A0C500001666F676B90
:1001280023500001661905E1245000016719D8B46D
:100138000ED0000E0001616F030E606F0CC062F0FC
:100148000001636B7FEC03F00CC023F0246A0D50B0
:100158000001666F676B1D500001661905E11E50AE
:1001680000016719D8B40ED0000E0001616F040EAB
:10017800606F0DC062F00001636B7FEC03F00DC08F
:100188001DF01E6A0E500001666F676B1950000162
:10019800661905E11A5000016719D8B40ED0000E8F
:1001A8000001616F050E606F0EC062F00001636BA5
:1001B8007FEC03F00EC019F01A6A0F500001666F49
:1001C800676B1F500001661905E12050000167198F
:1001D800D8B40ED0000E0001616F060E606F0FC01C
:1001E80062F00001636B7FEC03F00FC01FF0206A20
:1001F80008500001666F676B21500001661905E120
:10020800225000016719D8B41200000E0001616F76
:10021800070E606F08C062F00001636B7FEC03F0AB
:1002280008C021F0226A1200800E6F6E6E38E83224
:10023800070B040AD8A4FAD7400E726E810E0E017D
:10024800436FB80E0E01446F050E0E01456FF80E90
:100258000E017D6F000E0E01FA6F000E0E01FB6F8E
:100268000E01F869E00E0E01F96F000E0E01FE6F27
:10027800000E0E01FF6F0E01FC69E00E0E01FD6F0E
:10028800070E0E01466F000E0E01476FC00E0E01DD
:10029800796F0E017A690E017B690E017C69100E77
:1002A8000E01716FF20E0E01726F0E0173690E016D
:1002B80074690E0175690E0176690E0177690E0180
:1002C8007869000E0E01E26F000E0E01E36F320E28
:1002D8000E01E06FC00E0E01E16F000E0E01E66F19
:1002E800000E0E01E76F330E0E01E46F400E0E0193
:1002F800E56F000E0E01EA6F000E0E01EB6F330E74
:100308000E01E86FC00E0E01E96F0ED06E38E832AC
:10031800070B400AD8A417D0F9D76E38E832070B74
:10032800600AD8A410D0F9D7000E6F6E6E38E83284
:10033800070B0009D8A407D0F9D76E38E832070BA5
:10034800400AD8B4FAD7000E606E000E0F01306F65
:100358001200000E0001606F60AE1CD063CF41F048
:1003680064CF42F061CF43F062CF44F065CF40F0F4
:1003780066CF39F067CF34F068CF3AF069CF32F002
:100388006ACF33F06BCF3DF06CCF3EF06DCF3FF0CE
:10039800609E3FD00F0130AF1DD033CF41F034CF36
:1003A80042F031CF43F032CF44F035CF40F036CF72
:1003B80039F037CF34F038CF3AF039CF32F03ACF7E
:1003C80033F03BCF3DF03CCF3EF03DCF3FF00F0147
:1003D800309F1FD00E0180AF1FD083CE41F084CE56
:1003E80042F081CE43F082CE44F085CE40F086CEF6
:1003F80039F087CE34F088CE3AF089CE32F08ACE02
:1004080033F08BCE3DF08CCE3EF08DCE3FF00E011A
:10041800809F010E0001606F00016005D8A406D01E
:10042800000E0001606F7792010E1200000E12009C
:10043800CCEC02F09EEC03F018EC01F00FEC03F0AA
:10044800000E2A6E000E296E000E126E010E116E3D
:10045800000E146E000E136E8B8E899E8B9CADEC75
:1004680001F00009D8B419D0000E126E000E116EFA
:10047800898E32C001F033C002F0000E036E000E08
:10048800046E34C005F03AC006F03EC007F03FC025
:1004980008F0000E2A6E000E296E2ABE08D02A50D7
:1004A80004E1240E295CD8A002D0000E036E13507C
:1004B8001410D8B41FD0000E146E000E136E4CEC3E
:1004C80000F0C00E0001606F020E0001616F31C0C4
:1004D80062F010C063F00BC064F00CC065F00DC092
:1004E80066F00EC067F00FC068F010C069F0320EF9
:1004F80046EC03F0190E0001616F000E606F92EC7C
:1005080003F0ADD79EA61200C7BA14D0000E376EFE
:10051800C7B0C9CF45F0C7A436D0C69E3850010D24
:10052800010EF324D96E000EF420DA6EDF50C96E86
:10053800382A29D0372AC7B0C9CF45F0C7A40ED06A
:10054800C69E3850010D010EF324D96E000EF4201A
:10055800DA6EDF50C96E382A898C15D03704D8A4D2
:1005680003D045C038F00FD03850010D010EF324E8
:10057800D96E000EF420DA6E45C0DFFF382A000E6F
:10058800146E010E136E0F0E38169E96C688120052
:10059800000E00016C6F000E6B6F600ED36ED38877
:1005A800D38AD38C9B8C000E2C6E000E2B6E000E03
:1005B800356E000E0F015C6F5CCF5DFF93687F0E98
:1005C800926E899E180E946E8B9C8B9ED58ED59CB0
:1005D800D59AD596D550F80B0309D56E000E186E2E
:1005E800000E176E000E166E000E156E000E246EAD
:1005F800000E236E000E1E6E000E1D6E000E1A6E8B
:10060800000E196E000E206E000E1F6E000E226E78
:10061800000E216E1200550EC86E360EC66E000E04
:10062800C76E010EC56E9E969D86F28EF28C000EE8
:100638000001616F000E606F000161BF08D000010A
:10064800615113E1100E0001605DD8B00ED0010EAB
:1006580000016025D96E000E00016121DA6E000EDE
:10066800DF6E0001604B612BE7D7010E096E3A502F
:10067800010D010EF324D96E000EF420DA6E010E7E
:10068800DF6E120000016A6F000E0F01236F000E6B
:100698000F01246F6AC021FF60C022FF61C025FFDF
:1006A80062C026FF63C027FF64C028FF65C029FF1A
:1006B80066C02AFF67C02BFF68C02CFF69C02DFFEA
:1006C8000F012087120000EE6DF015EE16F0EE6AAD
:1006D800E550E150FCE1E250FAE100016C6B6B6B14
:1006E80000EE01F0440EEE6AE806FDE154905492E3
:1006F80000011CEF02F060C064F0010E0001656F9C
:100708000001642B03D00001D89065370001642FE5
:10071800FAD7000165513118316E120000016007E7
:10072800D8A0610700016029F9E100016129D8B466
:0E0738001200F4D7D08EF28EF28CF28A1200EC
:020000040020DA
:08000000FFFFFFFFFFFFFFFF00
:020000040030CA
:0E0000001D087F7FFF8991FF0FC00FE00F40AA
:00000001FF
