:0400000041EF00F0DC
:100008004382FACF27F0FBCF28F0E9CF29F0EACFD7
:100018002AF0E1CF2BF0E2CF2CF0D9CF2DF0DACFB8
:100028002EF0F3CF2FF0F4CF30F0F6CF31F0F7CF3A
:1000380032F0F8CF33F0F5CF34F043EC01F034C0B0
:10004800F5FF33C0F8FF32C0F7FF31C0F6FF30C00C
:10005800F4FF2FC0F3FF2EC0DAFF2DC0D9FF2CC04C
:10006800E2FF2BC0E1FF2AC0EAFF29C0E9FF28C050
:10007800FBFF27C0FAFF439211000EEF02F0800E3B
:100088006F6E6E38E832070B040AD8A4FAD7400E10
:10009800726E810E0E01436FB80E0E01446F050E8D
:1000A8000E01456FF80E0E017D6F000E0E01FA6FFE
:1000B800000E0E01FB6F0E01F869E00E0E01F96FDC
:1000C800000E0E01FE6F000E0E01FF6F0E01FC699F
:1000D800E00E0E01FD6F070E0E01466F000E0E01B9
:1000E800476FC00E0E01796F0E017A690E017B69A8
:1000F8000E017C69100E0E01716FF20E0E01726F07
:100108000E0173690E0174690E0175690E01766935
:100118000E0177690E017869000E0E01E26F000E7C
:100128000E01E36F320E0E01E06FC00E0E01E16F9B
:10013800000E0E01E66F000E0E01E76F330E0E0182
:10014800E46F400E0E01E56F000E0E01EA6F000E1F
:100158000E01EB6F330E0E01E86FC00E0E01E96F52
:100168000ED06E38E832070B400AD8A417D0F9D75A
:100178006E38E832070B600AD8A410D0F9D7000E01
:100188006F6E6E38E832070B0009D8A407D0F9D78C
:100198006E38E832070B400AD8B4FAD7000E606E02
:1001A800000E0F01306F1200000E356E60AE1CD0CD
:1001B80063CF22F064CF23F061CF24F062CF25F023
:1001C80065CF21F066CF15F067CF1AF068CF1BF026
:1001D80069CF1CF06ACF1DF06BCF1EF06CCF1FF0FB
:1001E8006DCF20F0609E3FD00F0130AF1DD033CFD0
:1001F80022F034CF23F031CF24F032CF25F035CFA1
:1002080021F036CF19F037CF1AF038CF1BF039CF9D
:100218001CF03ACF1DF03BCF1EF03CCF1FF03DCF76
:1002280020F00F01309F1FD00E0180AF1ED083CE6B
:1002380022F084CE23F081CE24F082CE25F085CE24
:1002480021F086CE19F087CE1AF088CE1BF089CE21
:100258001CF08ACE1DF08BCE1EF08CCE1FF08DCEFA
:1002680020F00E01809F010E356E3504D8A405D00C
:10027800000E356E7792010E1200000E12009EA637
:100288001200C7BA14D0000E176EC7B0C9CF26F037
:10029800C7A436D0C69E1850010D010EF324D96E9E
:1002A800000EF420DA6EDF50C96E182A29D0172AFA
:1002B800C7B0C9CF26F0C7A40ED0C69E1850010DEE
:1002C800010EF324D96E000EF420DA6EDF50C96EE9
:1002D800182A898C15D01704D8A403D026C018F082
:1002E8000FD01850010D010EF324D96E000EF42022
:1002F800DA6E26C0DFFF182A000E126E010E116E8C
:100308000F0E18169E96C6881200F3EC01F043EC07
:1003180000F025EC02F0898ED8EC01F01150121093
:10032800D8B41BD0000E126E000E116EC00E356EC2
:10033800080E366E01C037F002C038F003C039F03D
:1003480004C03AF005C03BF006C03CF007C03DF0E1
:1003580008C03EF0320EB8EC01F0000E366E640EA6
:10036800356E32EC02F0D8D73F6E000E0F01236FC6
:10037800000E0F01246F3FC021FF35C022FF36C099
:1003880025FF37C026FF38C027FF39C028FF3AC0ED
:1003980029FF3BC02AFF3CC02BFF3DC02CFF3EC0BD
:1003A8002DFF0F0120871200D8EC00F00009D8B407
:1003B800120015C001F01AC002F01BC003F01CC0E7
:1003C80004F01DC005F01EC006F01FC007F020C0D5
:1003D80008F01AB002D08B9E01D08B8E1200010E4D
:1003E800426E600ED36ED388D38AD38C9B8C000E5A
:1003F800146E000E136E000E166E000E0F015C6F69
:100408005CCF5DFF93683F0E926E899E899C180EA3
:10041800946E120000EE01F0250EEE6AE806FDE18A
:10042800760EF66E040EF76E000EF86E0900F5CF24
:1004380040F00900F5CF41F043904392000189EF65
:1004480001F0540EC86E360EC66E000EC76E010E51
:10045800C56E9E969D86F28EF28C12003506D8A047
:1004680036063528FBE13628D8B41200F7D7020142
:020000040020DA
:08000000FFFFFFFFFFFFFFFF00
:020000040030CA
:0E0000001D087F7FFF8991FF0FC00FE00F40AA
:00000001FF
